:1000000012C02CC02BC02AC029C028C027C026C0BF
:1000100025C024C023C022C021C020C01FC01EC0D4
:100020001DC01CC01BC011241FBECFE5D4E0DEBF25
:10003000CDBF10E0A0E6B0E0ECEBF0E002C0059030
:100040000D92A036B107D9F710E0A0E6B0E001C0EC
:100050001D92A036B107E1F702D02EC0D1CF8FEFAD
:1000600081BB21E049E150E001C021E022BB822FA9
:10007000880F282B88E893E1FA013197F1F701976F
:10008000D9F712BA88E893E1FA013197F1F70197AD
:10009000D9F72F3F59F722BB88E893E1FA0131974E
:1000A000F1F70197D9F712BA88E893E1FA0131978D
:0C00B000F1F70197D9F7D9CFF894FFCFF2
:00000001FF
