:1000000012C024C023C022C021C020C01FC01EC0F7
:100010001DC01CC01BC01AC019C018C017C016C014
:1000200015C014C013C011241FBECFE5D4E0DEBF3D
:10003000CDBF12E0A0E6B0E0E8EDF0E002C0059030
:100040000D92AC32B107D9F713D044C0D9CF282FC5
:10005000E199FECF7FBB6EBB2DBBE29AE19A08957A
:100060009C01E199FECF3FBB2EBBE09A8DB3089572
:10007000CF93DF938FEF81BBC0E0D0E0FE01E05A69
:10008000FF4F8081BE01E3DF2196CC35D105B1F76A
:1000900020E030E049E150E0E199FECF3FBB2EBBCC
:1000A000E09A8DB382BB80E197E2FA013197F1F7D4
:1000B0000197D9F712BA80E197E2FA013197F1F787
:1000C0000197D9F72F5F3F4F2C35310529F7DF9185
:0800D000CF910895F894FFCFD1
:1000D8000000000000FFFFFFFFFF000700070014FB
:1000E8007F147F14242A7F2A12C4C8102646364952
:1000F8005522500005030000001C22410000412247
:100108001C0014083E081408083E08080000503077
:100118000010101010100060600000201008040289
:100128003E5149453E00427F4000426151494621C7
:1001380041454B311814127F1027454545393C4A33
:100148004949300171090503364949493606494983
:10015800291E0036360000005636000008142241D9
:100168000014141414140041221408020151090641
:10017800324959513E7E1111117E7F494949363E17
:10018800414141227F4141221C7F494949417F0920
:100198000909013E4149497A7F0808087F00417FE3
:1001A80041002040413F017F081422417F404040E8
:1001B800407F020C027F7F0408107F3E4141413E90
:1001C8007F090909063E4151215E7F0919294646E2
:1001D8004949493101017F01013F4040403F1F200B
:1001E80040201F3F4038403F6314081463070870DD
:1001F80008076151494543007F414100552A552A66
:10020800550041417F000402010204404040404043
:10021800000102040020545454787F48444438387C
:1002280044444420384444487F3854545418087E81
:100238000901020C5252523E7F0804047800447DA2
:1002480040002040443D007F1028440000417F408A
:10025800007C041804787C08040478384444443842
:100268007C14141408081414187C7C080404084826
:1002780054545420043F4440203C4040207C1C20DF
:1002880040201C3C4030403C44281028440C50502E
:0C029800503C4464544C44000609090624
:00000001FF
