:1000000012C019C018C017C016C015C014C013C044
:1000100012C011C010C00FC00EC00DC00CC00BC06C
:100020000AC009C008C011241FBECFE5D4E0DEBF5E
:10003000CDBF1DD037C0E4CF82B984EC86BF06B6F1
:1000400007FEFDCF089584EA86BF06B607FEFDCF02
:10005000089583B984EC86BF06B607FEFDCF83B151
:10006000089584ED86BF06B607FEFDCF08958FEF95
:1000700081BB84E482B984EC86BF06B607FEFDCF5F
:1000800085E083B984EC86BF06B607FEFDCF83B159
:1000900026E094EC23B996BF06B607FEFDCF83B1E8
:0800A00082BBF8CFF894FFCFFA
:00000001FF
