:100000000C942A000C943F000C943F000C943F0089
:100010000C943F000C943F000C943F000C943F0064
:100020000C943F000C943F000C943F000C943F0054
:100030000C943F000C943F000C943F000C943F0044
:100040000C943F000C943F000C943F000C943F0034
:100050000C943F0011241FBECFE5D4E0DEBFCDBF1E
:1000600010E0A0E6B0E0E2EFF7E002C005900D92EC
:10007000A436B107D9F70E9494000C94F7030C94AE
:100080000000282F207F22BB909A9198929A2AEF05
:1000900030E0F9013197F1F7929890E044E0880F51
:1000A000991F4A95E1F782BB909A9198929AC9015B
:1000B0000197F1F792980895282F207F22BB9098FE
:1000C0009198929A2AEF30E0F9013197F1F79298DE
:1000D00090E054E0880F991F5A95E1F782BB909801
:1000E0009198929AC9010197F1F792980895CF9348
:1000F000DF93EC0103C00E94410021968881882390
:10010000D1F7DF91CF91089582E00E945C0088E2F0
:100110000E945C0086E00E945C008CE00E945C0013
:1001200081E40E9441000895FF920F931F93DF9393
:10013000CF93CDB7DEB760970FB6F894DEBF0FBE92
:10014000CDBF8E010F5F1F4F80E1F80111928A959C
:10015000E9F78FE190E09A83898324E030E03C83E3
:100160002B838EE090E09E838D8385E190E09887DD
:100170008F838DE090E09A8789873C872B873E8725
:100180002D878FEF81BB0E94840082E40E94410092
:1001900060E4F62E8F2D0E945C00F80180810E94A1
:1001A0004100F3940E5F1F4FF8E4FF1699F780E0CB
:1001B0000E94410060960FB6F894DEBF0FBECDBF1F
:1001C000CF91DF911F910F91FF9008950F931F938F
:1001D000DF93CF93CDB7DEB727970FB6F894DEBF86
:1001E0000FBECDBF00D000D000D0EDB7FEB7319626
:1001F0008E010F5F1F4FADB7BEB712961C930E93C3
:10020000119720E630E033832283958384830E9414
:100210001F018DB79EB706960FB6F8949EBF0FBE0E
:100220008DBFC8010E94770027960FB6F894DEBFF5
:100230000FBECDBFCF91DF911F910F910895AEE01A
:10024000B0E0E5E2F1E00C94CE030D891E8986E072
:100250008C831A8309838FEF9FE79E838D839E0192
:10026000275E3F4FCE0101966F89788DA9010E94CC
:1002700043012F813885020F131FF80110822E963B
:10028000E4E00C94EA03ABE0B0E0E9E4F1E00C94C4
:10029000C0033C012B015A01FC01178216828381A5
:1002A00081FD03C06FEF7FEFC6C19AE0892E1E016A
:1002B0000894211C311CF3012381F20123FD859157
:1002C00023FF81912F01882309F4B2C1853239F4CB
:1002D00023FD859123FF81912F01853229F490E040
:1002E000B3010E943603E7CF982FFF24EE24992410
:1002F000FFE1FF15D0F09B3269F09C3228F4903278
:1003000059F0933291F40EC09D3249F0903369F464
:1003100041E024C052E0F52A84E0F82A28C098E0A1
:10032000F92A25C0E0E1FE2A22C0F7FC29C0892F66
:1003300080538A3070F4F6FE05C0989C902C1124EE
:10034000980E15C0E89CE02C1124E80EF0E2FF2A7C
:100350000EC09E3229F4F6FC6BC140E4F42A07C0BB
:100360009C3619F450E8F52A02C0983649F4F20197
:1003700023FD959123FF91912F01992309F0B8CF87
:10038000892F8554833018F08052833038F444E04C
:1003900050E0A40EB51E5FE359830FC0933631F0D1
:1003A000933779F0933509F056C020C0F50180816C
:1003B000898342E050E0A40EB51E610101E010E027
:1003C00012C0F501C080D180F6FC03C06FEF7FEF53
:1003D00002C0692D70E042E050E0A40EB51EC601D7
:1003E0000E942B038C015FE7F52214C0F501C08049
:1003F000D180F6FC03C06FEF7FEF02C0692D70E083
:1004000042E050E0A40EB51EC6010E9420038C01FC
:1004100050E8F52AF3FE07C01AC080E290E0B3016D
:100420000E943603EA948E2D90E008171907A8F36E
:100430000EC0F601F7FC8591F7FE81916F0190E007
:10044000B3010E943603E110EA94015010400115F7
:10045000110579F7EAC0943611F0993669F5F7FE7F
:1004600008C0F501208131814281538184E090E010
:100470000AC0F501808191819C01442737FD409598
:10048000542F82E090E0A80EB91E9FE6F92257FF94
:1004900009C050954095309521953F4F4F4F5F4F84
:1004A000E0E8FE2ACA01B901A1012AE030E00E9479
:1004B0006203D82ED21840C0953729F41F2D1F7E15
:1004C0002AE030E01DC01F2D197F9F3661F0903764
:1004D00020F4983509F0ACC00FC0903739F0983748
:1004E00009F0A6C004C028E030E00AC0106114FD85
:1004F000146020E130E004C014FD166020E132E019
:1005000017FF08C0F501608171818281938144E009
:1005100050E008C0F50180819181BC0180E090E04D
:1005200042E050E0A40EB51EA1010E946203D82E45
:10053000D2188FE7F82EF122F6FE0BC05EEFF522FF
:10054000D91438F4F4FE07C0F2FC05C08FEEF8228F
:1005500002C01D2D01C0192DF4FE0DC0FE01ED0DD0
:10056000F11D8081803319F499EEF92208C01F5FD4
:10057000F2FE05C003C08F2D867809F01F5F0F2D96
:10058000F3FC14C0F0FE0FC01E1510F09D2C0BC024
:100590009D2C9E0C911A1E2D06C080E290E0B301A6
:1005A0000E9436031F5F1E15C0F304C01E1510F411
:1005B000E11A01C0EE2404FF0FC080E390E0B30114
:1005C0000E94360302FF1DC001FD03C088E790E0D2
:1005D0000EC088E590E00BC0802F867891F001FF77
:1005E00002C08BE201C080E2F7FC8DE290E0B30133
:1005F0000E94360306C080E390E0B3010E943603F8
:100600009A94D914C0F3DA94F101ED0DF11D8081B3
:1006100090E0B3010E943603DD20A9F706C080E216
:1006200090E0B3010E943603EA94EE20C1F743CE76
:10063000F30166817781CB012B96E2E10C94DC0318
:10064000FC010590615070400110D8F7809590959D
:100650008E0F9F1F0895FC016150704001900110A2
:10066000D8F7809590958E0F9F1F08950F931F9335
:10067000CF93DF938C01EB018B8181FF1BC082FF45
:100680000DC02E813F818C819D812817390764F42C
:10069000E881F9810193F983E88306C0E885F9854B
:1006A000802F0995892B31F48E819F8101969F833C
:1006B0008E8302C00FEF1FEFC801DF91CF911F9112
:1006C0000F910895FA01AA27283051F1203181F1C4
:1006D000E8946F936E7F6E5F7F4F8F4F9F4FAF4F4A
:1006E000B1E03ED0B4E03CD0670F781F891F9A1F5D
:1006F000A11D680F791F8A1F911DA11D6A0F711D11
:10070000811D911DA11D20D009F468943F912AE01C
:10071000269F11243019305D3193DEF6CF01089504
:10072000462F4770405D4193B3E00FD0C9F7F6CF35
:10073000462F4F70405D4A3318F0495D31FD4052FD
:10074000419302D0A9F7EACFB4E0A6959795879593
:1007500077956795BA95C9F7009761057105089572
:100760009B01AC010A2E069457954795379527951E
:10077000BA95C9F7620F731F841F951FA01D0895B6
:100780002F923F924F925F926F927F928F929F92A1
:10079000AF92BF92CF92DF92EF92FF920F931F938F
:1007A000CF93DF93CDB7DEB7CA1BDB0B0FB6F89440
:1007B000DEBF0FBECDBF09942A88398848885F8480
:1007C0006E847D848C849B84AA84B984C884DF80F1
:1007D000EE80FD800C811B81AA81B981CE0FD11DD5
:1007E0000FB6F894DEBF0FBECDBFED010895F894AB
:0207F000FFCF39
:0407F200256400007A
:00000001FF
