:1000000012C019C018C017C016C015C014C013C044
:1000100012C011C010C00FC00EC00DC00CC00BC06C
:100020000AC009C008C011241FBECFE5D4E0DEBF5E
:10003000CDBF02D03CC0E4CF1F93CF93DF938FEFAF
:1000400087BB84BB81BB21E030E040E050E0C1E0F1
:10005000D0E0E2E0F0E064E070E011E0CE01817019
:100060009070C0E0D0E0892B11F4C1E0D0E020FD19
:1000700004C0E095F095E270F070DA01C901837078
:100080009070A070B0700097A105B10521F4609543
:100090007095647070708E2F8C2B862B82BB2F5FB7
:1000A0003F4F4F4F5F4F812F8A95F1F7D7CFF8948D
:0200B000FFCF80
:00000001FF
