:1000000012C01AC018C017C016C015C014C013C043
:1000100012C011C010C00FC00EC00DC00CC00BC06C
:100020000AC009C008C011241FBECFE5D4E0DEBF5E
:10003000CDBF23D02DC0E4CF1F920F920FB60F92E9
:1000400011242F933F938F939F93EF93FF938FEF01
:1000500088BB80E197E229E130E0F9013197F1F7BF
:100060000197D9F7FF91EF919F918F913F912F9138
:100070000F900FBE0F901F9018958FEF87BB84BB1A
:100080008FB780688FBF8BB780648BBF18BAFECFE5
:04009000F894FFCF12
:00000001FF
