:1000000012C019C018C017C016C015C014C013C044
:1000100012C011C010C00FC00EC00DC00CC00BC06C
:100020000AC009C008C011241FBECFE5D4E0DEBF5E
:10003000CDBF02D096C0E4CFCF92DF92EF92FF9275
:100040000F931F93CF93DF938FEF81BB84BB88E324
:1000500082BB94E095BB24EC39E0F9013197F1F7CC
:1000600015BA86E082BB95BBF9013197F1F715BA55
:1000700081E082BB95BBF9013197F1F715BA8CE0AD
:1000800082BB95BBF9013197F1F715BA80E882BBC5
:1000900095BBC9010197F1F715BA37E8C32EA4E063
:1000A00044EC59E021E4D22E75E061E092E4E92EBF
:1000B000B3E484E1F82EC9E1D0E008E115E4C2BA66
:1000C000A5BBCA010197F1F715BAD2BA75BBCA012F
:1000D0000197F1F765BBE2BA75BBCA010197F1F769
:1000E00065BBB2BB75BBCA010197F1F765BBF2BA3C
:1000F000A5BBCA010197F1F715BAB2BB75BBCA011E
:100100000197F1F765BB20E030E002BBA5BBCA0157
:100110000197F1F715BA88E893E1FE013197F1F7FD
:100120000197D9F72F5F3F4F2530310571F712BB8B
:1001300075BBCA010197F1F765BBC1CF82BB84E0F3
:1001400085BB84EC99E00197F1F715BA089582BB5D
:1001500085E085BB84EC99E00197F1F781E085BBF0
:060160000895F894FFCFA2
:00000001FF
