:1000000012C024C023C022C021C020C01FC01EC0F7
:100010001DC01CC01BC01AC019C018C017C016C014
:1000200015C014C013C011241FBECFE5D4E0DEBF3D
:10003000CDBF10E0A0E6B0E0E6E1F1E002C005903F
:100040000D92AE37B107D9F726D063C0D9CF88BBA0
:1000500085E085BB84EC99E00197F1F781E085BBF1
:10006000089588BB84E085BB84EC99E00197F1F7A3
:1000700015BA0895FC0155E024EC39E041E007C0D1
:1000800088BB55BBC9010197F1F745BB319680810B
:100090008823B1F70895FF920F931F938FEF87BBCB
:1000A00084BB88E388BB84E0F82EF5BA04EC19E041
:1000B000C8010197F1F715BA81E088BBF5BAC8010C
:1000C0000197F1F715BA86E088BBF5BAC801019728
:1000D000F1F715BA8EE088BBF5BAC8010197F1F7C0
:1000E00015BA80E888BBF5BAC8010197F1F715BACF
:1000F00080E690E0BFDF80EC88BBF5BAC8010197CD
:10010000F1F715BA8DE690E0B5DF1F910F91FF90E2
:060110000895F894FFCFF2
:10011600534F46434F4E20494E4449410050767452
:0E0126002E204C494D4954454420434F2E0095
:00000001FF
