:1000000012C019C018C017C016C015C014C013C044
:1000100012C011C010C00FC00EC00DC00CC00BC06C
:100020000AC009C008C011241FBECFE5D4E0DEBF5E
:10003000CDBF02D042C0E4CF8FE084BB40E050E0AF
:1000400020E533EC9C9B0AC04F5F5F4F9C99FECF2D
:100050004330510519F441E050E003C041305105EF
:10006000A1F4A89AAB98C9010197F1F7A99AA898A9
:10007000C9010197F1F7AA9AA998C9010197F1F767
:10008000AB9AAA98C9010197F1F742305105D1F610
:10009000AB9AAA98C9010197F1F7AA9AA998C90140
:1000A0000197F1F7A99AA898C9010197F1F7A89AC1
:0E00B000AB98C9010197F1F7C5CFF894FFCFC7
:00000001FF
