:1000000012C019C018C017C016C015C014C013C044
:1000100012C011C010C00FC00EC00DC00CC00BC06C
:100020000AC009C008C011241FBECFE5D4E0DEBF5E
:10003000CDBF02D052C0E4CF8FEF87BB84BB80E13D
:100040008AB986E880BD10BC83E389B988E388BBA0
:1000500094E095BB22EE34E0F9013197F1F715BA3F
:1000600086E088BB95BBF9013197F1F715BA8EE0B0
:1000700088BB95BBF9013197F1F715BA81E088BBD0
:1000800095BBF9013197F1F715BA80E888BB95BBAC
:10009000C9010197F1F715BA60E855E041E05F9BAF
:1000A000FECF6BB98CB188BB55BBC9010197F1F785
:1000B00045BBF5CF88BB85E085BB82EE94E0019718
:1000C000F1F781E085BB089588BB84E085BB82EEB3
:0E00D00094E00197F1F715BA0895F894FFCF68
:00000001FF
