:1000000012C02CC02BC02AC029C028C027C026C0BF
:1000100025C024C023C022C021C020C01FC01EC0D4
:100020001DC01CC01BC011241FBECFE5D4E0DEBF25
:10003000CDBF10E0A0E6B0E0EEE8F0E002C0059031
:100040000D92A036B107D9F710E0A0E6B0E001C0EC
:100050001D92A036B107E1F702D017C0D1CF8FEFC4
:1000600081BB17BA31E022E093E086B38370813020
:1000700009F432BB86B38370823009F422BB86B3A5
:0E0080008370833091F792BBF0CFF894FFCFDE
:00000001FF
