:1000000012C024C023C022C021C020C01FC01EC0F7
:100010001DC01CC01BC01AC019C018C017C016C014
:1000200015C014C013C011241FBECFE5D4E0DEBF3D
:10003000CDBF10E0A0E6B0E0ECECF0E002C005902F
:100040000D92AA36B107D9F712D03EC0D9CFFC0124
:1000500024EC39E008C08FB9779BFECF779AC901AD
:100060000197F1F7319680818823A9F70895DF93EE
:10007000CF93CDB7DEB72A970FB6F894DEBF0FBE89
:10008000CDBF8CE287BB80E78DB980E593EC29E199
:1000900030E0F9013197F1F70197D9F7DE011196B8
:1000A000E0E6F0E089E001900D928150E1F71A86D8
:1000B000CE010196CCDF2A960FB6F894DEBF0FBEB4
:0C00C000CDBFCF91DF910895F894FFCFE1
:0A00CC0048696D616E7368750000ED
:00000001FF
