:1000000012C02CC02BC02AC029C028C027C026C0BF
:1000100025C024C023C022C021C020C01FC01EC0D4
:100020001DC01CC01BC011241FBECFE5D4E0DEBF25
:10003000CDBF10E0A0E6B0E0E2ECF0E002C0059039
:100040000D92AA36B107D9F710E0AAE6B0E001C0D8
:100050001D92AA36B107E1F702D031C0D1CFDF93AC
:10006000CF93CDB7DEB72A970FB6F894DEBF0FBE99
:10007000CDBF8FEF81BBDE011196E0E6F0E08AE0B4
:1000800001900D928150E1F720E030E0BE016F5FFA
:100090007F4F49E150E0FB01E20FF31F808182BBFB
:1000A00080E197E2FA013197F1F70197D9F72F5FD5
:1000B0003F4F2A3031057CF320E030E0ECCFF8945C
:0200C000FFCF70
:0A00C2003F065B4F666D7D077F6F00
:00000001FF
