:1000000012C024C023C022C021C020C01FC01EC0F7
:100010001DC01CC01BC01AC019C018C017C016C014
:1000200015C014C013C011241FBECFE5D4E0DEBF3D
:10003000CDBF10E0A0E6B0E0EEE2F7E002C0059030
:100040000D92A637B107D9F789D06FC3D9CF88BB36
:10005000A99AAA98AB9A84EF91E00197F1F7AB982F
:10006000089588BBA998AA98AB9A84EF91E001976C
:10007000F1F785B3817F85BB089588E3F2DF86E0E1
:10008000F0DF81E0EEDF8EE0ECDF80E8EADF08956C
:10009000CF93DF93EC0102C0DADF219688818823B9
:1000A000D9F7DF91CF9108958AB188618AB980B577
:1000B000806880BD10BC83E389B90895FC012EEEF1
:1000C00032E008C08CB95E9BFECF5E9AC9010197F1
:1000D000F1F7319680818823A9F708950F931F9334
:1000E000DF93CF93CDB7DEB72A970FB6F894DEBF74
:1000F0000FBECDBF2DB73EB7285030400FB6F89495
:100100003EBF0FBE2DBFEDB7FEB731968E010F5F1C
:100110001F4FADB7BEB712961C930E93119720E6F2
:1001200030E033832283648375838683978337D05B
:100130002DB73EB7285F3F4F0FB6F8943EBF0FBEB6
:100140002DBFC801A5DF2A960FB6F894DEBF0FBEFB
:10015000CDBFCF91DF911F910F9108958FEF87BB96
:100160008EEF84BBA1DF89DF83E690E091DF66E656
:1001700070E0882777FD8095982FB0DF989B03C0AB
:100180008AE690E09BDF9899F9CF8BB193B387FD16
:1001900002C090FFFACF8CB15ADF5F9AEFCFAEE08A
:1001A000B0E0E4EDF0E098C20D891E8986E08C8312
:1001B0001A8309838FEF9FE79E838D839E01275EBD
:1001C0003F4FCE0101966F89788DA90109D02F810B
:1001D0003885020F131FF80110822E96E4E098C2B2
:1001E000ABE0B0E0E5EFF0E069C23C012B015A0161
:1001F000FC0117821682838181FD03C06FEF7FEFC0
:10020000B9C19AE0892E1E010894211C311CF3010A
:100210002381F20123FD859123FF81912F01882302
:1002200009F4A5C1853239F423FD859123FF81911D
:100230002F01853221F490E0B301B6D1E8CF982F99
:10024000FF24EE249924FFE1FF15D0F09B3269F0E2
:100250009C3228F4903259F0933291F40EC09D32C2
:1002600049F0903369F441E024C052E0F52A84E07B
:10027000F82A28C098E0F92A25C0E0E1FE2A22C029
:10028000F7FC29C0892F80538A3070F4F6FE05C030
:10029000989C902C1124980E15C0E89CE02C1124F9
:1002A000E80EF0E2FF2A0EC09E3229F4F6FC5FC190
:1002B00040E4F42A07C09C3619F450E8F52A02C03D
:1002C000983649F4F20123FD959123FF91912F0176
:1002D000992309F0B8CF892F8554833018F08052C4
:1002E000833038F444E050E0A40EB51E5FE3598338
:1002F0000FC0933631F0933779F0933509F052C03F
:100300001FC0F5018081898342E050E0A40EB51E34
:10031000610101E010E011C0F501C080D180F6FC60
:1003200003C06FEF7FEF02C0692D70E042E050E044
:10033000A40EB51EC6012DD18C015FE7F52213C0B6
:10034000F501C080D180F6FC03C06FEF7FEF02C0E3
:10035000692D70E042E050E0A40EB51EC6010ED13A
:100360008C0150E8F52AF3FE06C018C080E290E048
:10037000B3011AD1EA948E2D90E008171907B0F353
:100380000DC0F601F7FC8591F7FE81916F0190E0B9
:10039000B3010AD1E110EA94015010400115110592
:1003A00081F7E2C0943611F0993661F5F7FE08C086
:1003B000F501208131814281538184E090E00AC0BF
:1003C000F501808191819C01442737FD4095542F90
:1003D00082E090E0A80EB91E9FE6F92257FF09C0FF
:1003E00050954095309521953F4F4F4F5F4FE0E836
:1003F000FE2ACA01B901A1012AE030E001D1D82EBC
:10040000D2183FC0953729F41F2D1F7E2AE030E017
:100410001DC01F2D197F9F3661F0903720F498354D
:1004200009F0A5C00FC0903739F0983709F09FC088
:1004300004C028E030E00AC0106114FD146020E11F
:1004400030E004C014FD166020E132E017FF08C060
:10045000F501608171818281938144E050E008C0A0
:10046000F50180819181BC0180E090E042E050E0A4
:10047000A40EB51EA101C4D0D82ED2188FE7F82E35
:10048000F122F6FE0BC05EEFF522D91438F4F4FE2B
:1004900007C0F2FC05C08FEEF82202C01D2D01C07E
:1004A000192DF4FE0DC0FE01ED0DF11D808180338C
:1004B00019F499EEF92208C01F5FF2FE05C003C0CF
:1004C0008F2D867809F01F5F0F2DF3FC13C0F0FE0F
:1004D0000EC01E1510F09D2C0AC09D2C9E0C911A6A
:1004E0001E2D05C080E290E0B3015ED01F5F1E1597
:1004F000C8F304C01E1510F4E11A01C0EE2404FF75
:100500000EC080E390E0B3014FD002FF1BC001FD9D
:1005100003C088E790E00EC088E590E00BC0802F14
:10052000867881F001FF02C08BE201C080E2F7FC17
:100530008DE290E0B30138D005C080E390E0B301D4
:1005400033D09A94D914C8F3DA94F101ED0DF11D6A
:10055000808190E0B30128D0DD20B1F705C080E2B2
:1005600090E0B30121D0EA94EE20C9F750CEF30118
:1005700066817781CB012B96E2E1BCC0FC0105903E
:10058000615070400110D8F7809590958E0F9F1F95
:100590000895FC016150704001900110D8F78095DA
:1005A00090958E0F9F1F08950F931F93CF93DF9306
:1005B0008C01EB018B8181FF1BC082FF0DC02E815E
:1005C0003F818C819D812817390764F4E881F98186
:1005D0000193F983E88306C0E885F985802F0995A2
:1005E000892B31F48E819F8101969F838E8302C077
:1005F0000FEF1FEFC801DF91CF911F910F91089569
:10060000FA01AA27283051F1203181F1E8946F9343
:100610006E7F6E5F7F4F8F4F9F4FAF4FB1E03ED0E9
:10062000B4E03CD0670F781F891F9A1FA11D680F87
:10063000791F8A1F911DA11D6A0F711D811D911DBA
:10064000A11D20D009F468943F912AE0269F11242F
:100650003019305D3193DEF6CF010895462F477093
:10066000405D4193B3E00FD0C9F7F6CF462F4F70EE
:10067000405D4A3318F0495D31FD4052419302D04C
:10068000A9F7EACFB4E0A6959795879577956795F2
:10069000BA95C9F700976105710508959B01AC01F2
:1006A0000A2E06945795479537952795BA95C9F719
:1006B000620F731F841F951FA01D08952F923F92F4
:1006C0004F925F926F927F928F929F92AF92BF9262
:1006D000CF92DF92EF92FF920F931F93CF93DF930E
:1006E000CDB7DEB7CA1BDB0B0FB6F894DEBF0FBE6B
:1006F000CDBF09942A88398848885F846E847D84B8
:100700008C849B84AA84B984C884DF80EE80FD80B9
:100710000C811B81AA81B981CE0FD11D0FB6F8942F
:0E072000DEBF0FBECDBFED010895F894FFCFF0
:10072E002564004F6B003132330048696D616E7382
:06073E00687557543100FC
:00000001FF
