:1000000012C024C023C022C021C020C01FC01EC0F7
:100010001DC01CC01BC01AC019C018C017C016C014
:1000200015C014C013C011241FBECFE5D4E0DEBF3D
:10003000CDBF10E0A0E6B0E0E0E7FDE002C0059033
:100040000D92AC36B107D9F7D6D090C6D9CF282FAC
:10005000207F28BBC09AC198C29A2AEF30E0F901EC
:100060003197F1F7C29890E044E0880F991F4A95C4
:10007000E1F788BBC09AC198C29AC9010197F1F70C
:10008000C29808950F931F93CF93DF9320E030E041
:1000900048EC52E4EBD0DFD18B01E1E0F0E00EC0A0
:1000A000CF01880F991F53E0EE0FFF1F5A95E1F71C
:1000B000E80FF91FCB016AE070E06BD31616170644
:1000C0007CF3CF0111C0CA30D10519F48EE290E063
:1000D000BEDFC801BE015DD3CB01C096B8DFC80149
:1000E000BE0157D38C01CE016AE070E052D3EB0120
:1000F0001016110644F3DF91CF911F910F910895CF
:10010000282F207F28BBC098C198C29A2AEF30E0E0
:10011000F9013197F1F7C29890E0B4E0880F991F88
:10012000BA95E1F788BBC098C198C29AC9010197F6
:10013000F1F7C2980895CF93DF93EC0102C087DFF7
:10014000219688818823D9F7DF91CF91089582E0A5
:10015000D7DF88E2D5DF86E0D3DF8CE0D1DF81E432
:1001600076DF089580E886B987B18F7087B90895E2
:100170000F931F93DF93CF93CDB7DEB727970FB6BB
:10018000F894DEBF0FBECDBF00D000D000D0EDB7D9
:10019000FEB731968E010F5F1F4FADB7BEB71296F7
:1001A0001C930E93119720E630E0338322839583CE
:1001B00084834DD38DB79EB706960FB6F8949EBF35
:1001C0000FBE8DBFC801B7DF27960FB6F894DEBF0C
:1001D0000FBECDBFCF91DF911F910F91089597B1C1
:1001E0008770892B87B9369A86B1349A84B195B1D4
:1001F000BFDF17B808950F931F93CF93DF938FEF4F
:1002000087BBA5DF80E886B987B18F7087B9C0E06A
:10021000D0E009E110E01BC0C130D10579F0C23057
:10022000D1051CF4209741F00FC0C230D10541F038
:10023000C330D10549F406C080E805C087E803C093
:1002400080EC01C087EC5CDF8C2FC9DF2196C430C5
:10025000D10514F380E197E2F8013197F1F70197A6
:10026000D9F781E04DDFC0E0D0E0F1CFA0E2B0E00F
:10027000EBE3F1E0B5C269837A838B839C832D83A2
:100280003E834F835887CE010196BE01675F7F4F43
:1002900008D2CE010596BE016F5E7F4F02D29985CE
:1002A000923088F089898230C8F0943019F4823015
:1002B00051F404C0843029F4923081F483E690E054
:1002C000C6C0923049F420E09A858A89981321E0CB
:1002D0002A87CE010996BBC0823049F420E09A8576
:1002E0008A89981321E02A8BCE014196B0C02D84D3
:1002F0003E844F8458886D887E888F88988CEE2441
:10030000FF248701AA24BB24650140E050E060E09F
:1003100070E0E0E0F0E0C10181709070892BE9F0BD
:10032000E60CF71C081D191D9A01AB012A0D3B1D97
:100330004C1D5D1D80E090E0A0E0B0E0E614F70405
:100340000805190520F481E090E0A0E0B0E0BA01D2
:10035000A901480F591F6A1F7B1FAA0CBB1CCC1C8C
:10036000DD1C97FE08C081E090E0A0E0B0E0A82A84
:10037000B92ACA2ADB2A3196E032F10549F0660C27
:10038000771C881C991C5694479437942794C3CFA4
:10039000FA85EA892B893C898B859C85280F391F32
:1003A0002E5F3F4F17C0CA0181709070892B61F09A
:1003B00016950795F794E79480E090E0A0E0B0E808
:1003C000E82AF92A0A2B1B2B7695679557954795AE
:1003D0002F5F3F4F77FDE7CF0CC0440F551F661FBF
:1003E000771F17FD4160EE0CFF1C001F111F2150ED
:1003F0003040403090E0590790E0690790E4790779
:1004000060F32B8F3C8FDB01CA018F779070A07057
:10041000B07080349105A105B10561F447FD0AC0B3
:10042000E114F1040105110529F0405C5F4F6F4FA5
:100430007F4F40781A8EFE1711F081E08A8F4D8F22
:100440005E8F6F8F78A383E0898FCE01499654D059
:10045000A096E2E1E1C1ACE0B0E0E0E3F2E0D0C1BF
:1004600069837A838B839C83CE010196BE016B5F87
:100470007F4F17D18D81823061F1823050F184300D
:1004800021F48E81882351F12EC02F81388537FDCC
:1004900020C06E812F3131051CF06623F9F023C096
:1004A0008EE190E0821B930B29853A854B855C8514
:1004B00004C056954795379527958A95D2F76623B8
:1004C000B1F050954095309521953F4F4F4F5F4F7C
:1004D0000EC020E030E040E050E009C02FEF3FEFD9
:1004E0004FEF5FE704C020E030E040E050E8B901A2
:1004F000CA012C96E2E0A0C1DF92EF92FF920F9327
:100500001F93FC01E480F58006811781D1808081F2
:10051000823048F480E090E0A0E1B0E0E82AF92AD7
:100520000A2B1B2BA5C0843009F49FC0823021F414
:10053000EE24FF24870105C0E114F1040105110533
:1005400019F4E0E0F0E096C0628173819FEF6238B9
:1005500079070CF05BC022E83FEF261B370B2A31EE
:1005600031052CF020E030E040E050E02AC0B80136
:10057000A701022E04C076956795579547950A9472
:10058000D2F781E090E0A0E0B0E004C0880F991FAE
:10059000AA1FBB1F2A95D2F70197A109B1098E2185
:1005A0009F21A023B1230097A105B10521F081E08F
:1005B00090E0A0E0B0E09A01AB01282B392B4A2B48
:1005C0005B2BDA01C9018F779070A070B070803416
:1005D0009105A105B10539F427FF09C0205C3F4F03
:1005E0004F4F5F4F04C0215C3F4F4F4F5F4FE0E0E4
:1005F000F0E02030A0E03A07A0E04A07A0E45A0764
:1006000010F0E1E0F0E079018A0127C0603871055F
:1006100064F5FB01E158FF4FD801C7018F77907057
:10062000A070B07080349105A105B10539F4E7FEE2
:100630000DC080E490E0A0E0B0E004C08FE390E063
:10064000A0E0B0E0E80EF91E0A1F1B1F17FF05C04F
:1006500016950795F794E794319687E016950795D8
:10066000F794E7948A95D1F705C0EE24FF2487011B
:10067000EFEFF0E06E2F679566276795902F9F77D5
:10068000D794DD24D7948E2F8695492F462B582F4B
:100690005D29B701CA011F910F91FF90EF90DF9084
:1006A0000895FC01DB01408151812281622F6F7727
:1006B00070E0221F2227221F9381892F880F822B0F
:1006C000282F30E0991F9927991F11969C93119715
:1006D00021153105A9F5411551056105710511F483
:1006E00082E037C082E89FEF13969C938E93129717
:1006F0009A01AB0167E0220F331F441F551F6A9513
:10070000D1F783E08C930DC0220F331F441F551F78
:1007100012968D919C911397019713969C938E93AB
:100720001297203080E0380780E0480780E45807BF
:1007300058F314962D933D934D935C93179708951A
:100740002F3F310579F4411551056105710519F403
:1007500084E08C93089564FF03C081E08C9312C001
:100760001C9210C02F57304013963C932E93129733
:1007700083E08C9387E0440F551F661F771F8A958F
:10078000D1F7706414964D935D936D937C93179796
:10079000089597FB092E07260AD077FD04D00CD0C8
:1007A00006D000201AF4709561957F4F0895F6F7F2
:1007B000909581959F4F0895AA1BBB1B51E107C0DF
:1007C000AA1FBB1FA617B70710F0A61BB70B881FE1
:1007D000991F5A95A9F780959095BC01CD01089570
:1007E0002F923F924F925F926F927F928F929F9241
:1007F000AF92BF92CF92DF92EF92FF920F931F932F
:10080000CF93DF93CDB7DEB7CA1BDB0B0FB6F894DF
:10081000DEBF0FBECDBF09942A88398848885F841F
:100820006E847D848C849B84AA84B984C884DF8090
:10083000EE80FD800C811B81AA81B981CE0FD11D74
:100840000FB6F894DEBF0FBECDBFED010895AEE048
:10085000B0E0ECE2F4E0D2CF0D891E8986E08C8313
:100860001A8309838FEF9FE79E838D839E01275E06
:100870003F4FCE0101966F89788DA90109D02F8154
:100880003885020F131FF80110822E96E4E0D2CFB4
:10089000ABE0B0E0EDE4F4E0A3CF3C012B015A0162
:1008A000FC0117821682838181FD03C06FEF7FEF09
:1008B000B9C19AE0892E1E010894211C311CF30154
:1008C0002381F20123FD859123FF81912F0188234C
:1008D00009F4A5C1853239F423FD859123FF819167
:1008E0002F01853221F490E0B301B6D1E8CF982FE3
:1008F000FF24EE249924FFE1FF15D0F09B3269F02C
:100900009C3228F4903259F0933291F40EC09D320B
:1009100049F0903369F441E024C052E0F52A84E0C4
:10092000F82A28C098E0F92A25C0E0E1FE2A22C072
:10093000F7FC29C0892F80538A3070F4F6FE05C079
:10094000989C902C1124980E15C0E89CE02C112442
:10095000E80EF0E2FF2A0EC09E3229F4F6FC5FC1D9
:1009600040E4F42A07C09C3619F450E8F52A02C086
:10097000983649F4F20123FD959123FF91912F01BF
:10098000992309F0B8CF892F8554833018F080520D
:10099000833038F444E050E0A40EB51E5FE3598381
:1009A0000FC0933631F0933779F0933509F052C088
:1009B0001FC0F5018081898342E050E0A40EB51E7E
:1009C000610101E010E011C0F501C080D180F6FCAA
:1009D00003C06FEF7FEF02C0692D70E042E050E08E
:1009E000A40EB51EC6012DD18C015FE7F52213C000
:1009F000F501C080D180F6FC03C06FEF7FEF02C02D
:100A0000692D70E042E050E0A40EB51EC6010ED183
:100A10008C0150E8F52AF3FE06C018C080E290E091
:100A2000B3011AD1EA948E2D90E008171907B0F39C
:100A30000DC0F601F7FC8591F7FE81916F0190E002
:100A4000B3010AD1E110EA940150104001151105DB
:100A500081F7E2C0943611F0993661F5F7FE08C0CF
:100A6000F501208131814281538184E090E00AC008
:100A7000F501808191819C01442737FD4095542FD9
:100A800082E090E0A80EB91E9FE6F92257FF09C048
:100A900050954095309521953F4F4F4F5F4FE0E87F
:100AA000FE2ACA01B901A1012AE030E001D1D82E05
:100AB000D2183FC0953729F41F2D1F7E2AE030E061
:100AC0001DC01F2D197F9F3661F0903720F4983597
:100AD00009F0A5C00FC0903739F0983709F09FC0D2
:100AE00004C028E030E00AC0106114FD146020E169
:100AF00030E004C014FD166020E132E017FF08C0AA
:100B0000F501608171818281938144E050E008C0E9
:100B1000F50180819181BC0180E090E042E050E0ED
:100B2000A40EB51EA101C4D0D82ED2188FE7F82E7E
:100B3000F122F6FE0BC05EEFF522D91438F4F4FE74
:100B400007C0F2FC05C08FEEF82202C01D2D01C0C7
:100B5000192DF4FE0DC0FE01ED0DF11D80818033D5
:100B600019F499EEF92208C01F5FF2FE05C003C018
:100B70008F2D867809F01F5F0F2DF3FC13C0F0FE58
:100B80000EC01E1510F09D2C0AC09D2C9E0C911AB3
:100B90001E2D05C080E290E0B3015ED01F5F1E15E0
:100BA000C8F304C01E1510F4E11A01C0EE2404FFBE
:100BB0000EC080E390E0B3014FD002FF1BC001FDE7
:100BC00003C088E790E00EC088E590E00BC0802F5E
:100BD000867881F001FF02C08BE201C080E2F7FC61
:100BE0008DE290E0B30138D005C080E390E0B3011E
:100BF00033D09A94D914C8F3DA94F101ED0DF11DB4
:100C0000808190E0B30128D0DD20B1F705C080E2FB
:100C100090E0B30121D0EA94EE20C9F750CEF30161
:100C200066817781CB012B96E2E1F6CDFC01059040
:100C3000615070400110D8F7809590958E0F9F1FDE
:100C40000895FC016150704001900110D8F7809523
:100C500090958E0F9F1F08950F931F93CF93DF934F
:100C60008C01EB018B8181FF1BC082FF0DC02E81A7
:100C70003F818C819D812817390764F4E881F981CF
:100C80000193F983E88306C0E885F985802F0995EB
:100C9000892B31F48E819F8101969F838E8302C0C0
:100CA0000FEF1FEFC801DF91CF911F910F910895B2
:100CB000FA01AA27283051F1203181F1E8946F938D
:100CC0006E7F6E5F7F4F8F4F9F4FAF4FB1E03ED033
:100CD000B4E03CD0670F781F891F9A1FA11D680FD1
:100CE000791F8A1F911DA11D6A0F711D811D911D04
:100CF000A11D20D009F468943F912AE0269F112479
:100D00003019305D3193DEF6CF010895462F4770DC
:100D1000405D4193B3E00FD0C9F7F6CF462F4F7037
:100D2000405D4A3318F0495D31FD4052419302D095
:100D3000A9F7EACFB4E0A69597958795779567953B
:100D4000BA95C9F700976105710508959B01AC013B
:100D50000A2E06945795479537952795BA95C9F762
:100D6000620F731F841F951FA01D0895F894FFCF75
:0C0D7000256400000000000000000000EE
:00000001FF
